{
  "_format": "hh-sol-artifact-1",
  "contractName": "TokenForwarder",
  "sourceName": "contracts/forwarder.sol",
  "abi": [
    {
      "inputs": [],
      "stateMutability": "nonpayable",
      "type": "constructor"
    },
    {
      "inputs": [],
      "name": "ECDSAInvalidSignature",
      "type": "error"
    },
    {
      "inputs": [
        {
          "internalType": "uint256",
          "name": "length",
          "type": "uint256"
        }
      ],
      "name": "ECDSAInvalidSignatureLength",
      "type": "error"
    },
    {
      "inputs": [
        {
          "internalType": "bytes32",
          "name": "s",
          "type": "bytes32"
        }
      ],
      "name": "ECDSAInvalidSignatureS",
      "type": "error"
    },
    {
      "inputs": [
        {
          "internalType": "address",
          "name": "owner",
          "type": "address"
        }
      ],
      "name": "OwnableInvalidOwner",
      "type": "error"
    },
    {
      "inputs": [
        {
          "internalType": "address",
          "name": "account",
          "type": "address"
        }
      ],
      "name": "OwnableUnauthorizedAccount",
      "type": "error"
    },
    {
      "anonymous": false,
      "inputs": [
        {
          "indexed": true,
          "internalType": "address",
          "name": "previousOwner",
          "type": "address"
        },
        {
          "indexed": true,
          "internalType": "address",
          "name": "newOwner",
          "type": "address"
        }
      ],
      "name": "OwnershipTransferred",
      "type": "event"
    },
    {
      "anonymous": false,
      "inputs": [
        {
          "indexed": true,
          "internalType": "address",
          "name": "sender",
          "type": "address"
        },
        {
          "indexed": true,
          "internalType": "address",
          "name": "recipient",
          "type": "address"
        },
        {
          "indexed": false,
          "internalType": "address",
          "name": "tokenContract",
          "type": "address"
        },
        {
          "indexed": false,
          "internalType": "uint256",
          "name": "amount",
          "type": "uint256"
        }
      ],
      "name": "TokenTransferred",
      "type": "event"
    },
    {
      "inputs": [],
      "name": "depositGasFunds",
      "outputs": [],
      "stateMutability": "payable",
      "type": "function"
    },
    {
      "inputs": [
        {
          "internalType": "address",
          "name": "tokenContract",
          "type": "address"
        },
        {
          "internalType": "address",
          "name": "recipient",
          "type": "address"
        },
        {
          "internalType": "uint256",
          "name": "amount",
          "type": "uint256"
        },
        {
          "internalType": "uint256",
          "name": "nonce",
          "type": "uint256"
        },
        {
          "internalType": "bytes",
          "name": "signature",
          "type": "bytes"
        }
      ],
      "name": "forwardERC20Transfer",
      "outputs": [],
      "stateMutability": "nonpayable",
      "type": "function"
    },
    {
      "inputs": [
        {
          "internalType": "address",
          "name": "tokenContract",
          "type": "address"
        },
        {
          "internalType": "address",
          "name": "recipient",
          "type": "address"
        },
        {
          "internalType": "uint256",
          "name": "tokenId",
          "type": "uint256"
        },
        {
          "internalType": "uint256",
          "name": "nonce",
          "type": "uint256"
        },
        {
          "internalType": "bytes",
          "name": "signature",
          "type": "bytes"
        }
      ],
      "name": "forwardERC721Transfer",
      "outputs": [],
      "stateMutability": "nonpayable",
      "type": "function"
    },
    {
      "inputs": [
        {
          "internalType": "address",
          "name": "",
          "type": "address"
        }
      ],
      "name": "nonces",
      "outputs": [
        {
          "internalType": "uint256",
          "name": "",
          "type": "uint256"
        }
      ],
      "stateMutability": "view",
      "type": "function"
    },
    {
      "inputs": [],
      "name": "owner",
      "outputs": [
        {
          "internalType": "address",
          "name": "",
          "type": "address"
        }
      ],
      "stateMutability": "view",
      "type": "function"
    },
    {
      "inputs": [],
      "name": "renounceOwnership",
      "outputs": [],
      "stateMutability": "nonpayable",
      "type": "function"
    },
    {
      "inputs": [
        {
          "internalType": "address",
          "name": "newOwner",
          "type": "address"
        }
      ],
      "name": "transferOwnership",
      "outputs": [],
      "stateMutability": "nonpayable",
      "type": "function"
    },
    {
      "inputs": [
        {
          "internalType": "uint256",
          "name": "amount",
          "type": "uint256"
        }
      ],
      "name": "withdrawGasFunds",
      "outputs": [],
      "stateMutability": "nonpayable",
      "type": "function"
    },
    {
      "stateMutability": "payable",
      "type": "receive"
    }
  ],
  "bytecode": "0x60806040523480156200001157600080fd5b5033600073ffffffffffffffffffffffffffffffffffffffff168173ffffffffffffffffffffffffffffffffffffffff1603620000885760006040517f1e4fbdf70000000000000000000000000000000000000000000000000000000081526004016200007f9190620001a9565b60405180910390fd5b6200009981620000a060201b60201c565b50620001c6565b60008060009054906101000a900473ffffffffffffffffffffffffffffffffffffffff169050816000806101000a81548173ffffffffffffffffffffffffffffffffffffffff021916908373ffffffffffffffffffffffffffffffffffffffff1602179055508173ffffffffffffffffffffffffffffffffffffffff168173ffffffffffffffffffffffffffffffffffffffff167f8be0079c531659141344cd1fd0a4f28419497f9722a3daafe3b4186f6b6457e060405160405180910390a35050565b600073ffffffffffffffffffffffffffffffffffffffff82169050919050565b6000620001918262000164565b9050919050565b620001a38162000184565b82525050565b6000602082019050620001c0600083018462000198565b92915050565b61183880620001d66000396000f3fe60806040526004361061007f5760003560e01c8063835d03da1161004e578063835d03da146101315780638da5cb5b1461013b578063cc71205f14610166578063f2fde38b1461018f57610086565b80632f7cfcc01461008b5780633bf4d0e0146100b4578063715018a6146100dd5780637ecebe00146100f457610086565b3661008657005b600080fd5b34801561009757600080fd5b506100b260048036038101906100ad91906110ce565b6101b8565b005b3480156100c057600080fd5b506100db60048036038101906100d69190611165565b610503565b005b3480156100e957600080fd5b506100f261059f565b005b34801561010057600080fd5b5061011b60048036038101906101169190611192565b6105b3565b60405161012891906111ce565b60405180910390f35b6101396105cb565b005b34801561014757600080fd5b506101506105d5565b60405161015d91906111f8565b60405180910390f35b34801561017257600080fd5b5061018d600480360381019061018891906110ce565b6105fe565b005b34801561019b57600080fd5b506101b660048036038101906101b19190611192565b610962565b005b6101c585858585856109e8565b610204576040517f08c379a00000000000000000000000000000000000000000000000000000000081526004016101fb90611270565b60405180910390fd5b81600160003373ffffffffffffffffffffffffffffffffffffffff1673ffffffffffffffffffffffffffffffffffffffff1681526020019081526020016000206000815480929190610255906112bf565b9190505514610299576040517f08c379a000000000000000000000000000000000000000000000000000000000815260040161029090611353565b60405180910390fd5b600085905060005a9050848273ffffffffffffffffffffffffffffffffffffffff166370a08231336040518263ffffffff1660e01b81526004016102dd91906111f8565b602060405180830381865afa1580156102fa573d6000803e3d6000fd5b505050506040513d601f19601f8201168201806040525081019061031e9190611388565b101561035f576040517f08c379a000000000000000000000000000000000000000000000000000000000815260040161035690611401565b60405180910390fd5b8173ffffffffffffffffffffffffffffffffffffffff166323b872dd3388886040518463ffffffff1660e01b815260040161039c93929190611421565b6020604051808303816000875af11580156103bb573d6000803e3d6000fd5b505050506040513d601f19601f820116820180604052508101906103df9190611490565b5060005a826103ee91906114bd565b905060003a826103fe91906114f1565b905080471015610443576040517f08c379a000000000000000000000000000000000000000000000000000000000815260040161043a9061157f565b60405180910390fd5b61044b6105d5565b73ffffffffffffffffffffffffffffffffffffffff166108fc829081150290604051600060405180830381858888f19350505050158015610490573d6000803e3d6000fd5b508773ffffffffffffffffffffffffffffffffffffffff163373ffffffffffffffffffffffffffffffffffffffff167f9af266b6ca4909f988dc948fb50ad15153abbe525351881bad4fa858be96515c8b8a6040516104f092919061159f565b60405180910390a3505050505050505050565b61050b610a77565b8047101561054e576040517f08c379a000000000000000000000000000000000000000000000000000000000815260040161054590611401565b60405180910390fd5b6105566105d5565b73ffffffffffffffffffffffffffffffffffffffff166108fc829081150290604051600060405180830381858888f1935050505015801561059b573d6000803e3d6000fd5b5050565b6105a7610a77565b6105b16000610afe565b565b60016020528060005260406000206000915090505481565b6105d3610a77565b565b60008060009054906101000a900473ffffffffffffffffffffffffffffffffffffffff16905090565b61060b85858585856109e8565b61064a576040517f08c379a000000000000000000000000000000000000000000000000000000000815260040161064190611270565b60405180910390fd5b81600160003373ffffffffffffffffffffffffffffffffffffffff1673ffffffffffffffffffffffffffffffffffffffff168152602001908152602001600020600081548092919061069b906112bf565b91905055146106df576040517f08c379a00000000000000000000000000000000000000000000000000000000081526004016106d690611353565b60405180910390fd5b600085905060005a90503373ffffffffffffffffffffffffffffffffffffffff168273ffffffffffffffffffffffffffffffffffffffff16636352211e876040518263ffffffff1660e01b815260040161073991906111ce565b602060405180830381865afa158015610756573d6000803e3d6000fd5b505050506040513d601f19601f8201168201806040525081019061077a91906115dd565b73ffffffffffffffffffffffffffffffffffffffff16146107d0576040517f08c379a00000000000000000000000000000000000000000000000000000000081526004016107c790611656565b60405180910390fd5b8173ffffffffffffffffffffffffffffffffffffffff166323b872dd3388886040518463ffffffff1660e01b815260040161080d93929190611421565b600060405180830381600087803b15801561082757600080fd5b505af115801561083b573d6000803e3d6000fd5b5050505060005a8261084d91906114bd565b905060003a8261085d91906114f1565b9050804710156108a2576040517f08c379a00000000000000000000000000000000000000000000000000000000081526004016108999061157f565b60405180910390fd5b6108aa6105d5565b73ffffffffffffffffffffffffffffffffffffffff166108fc829081150290604051600060405180830381858888f193505050501580156108ef573d6000803e3d6000fd5b508773ffffffffffffffffffffffffffffffffffffffff163373ffffffffffffffffffffffffffffffffffffffff167f9af266b6ca4909f988dc948fb50ad15153abbe525351881bad4fa858be96515c8b8a60405161094f92919061159f565b60405180910390a3505050505050505050565b61096a610a77565b600073ffffffffffffffffffffffffffffffffffffffff168173ffffffffffffffffffffffffffffffffffffffff16036109dc5760006040517f1e4fbdf70000000000000000000000000000000000000000000000000000000081526004016109d391906111f8565b60405180910390fd5b6109e581610afe565b50565b6000803387878787604051602001610a049594939291906116df565b6040516020818303038152906040528051906020012090506000610a3984610a2b84610bc2565b610bf890919063ffffffff16565b90503373ffffffffffffffffffffffffffffffffffffffff168173ffffffffffffffffffffffffffffffffffffffff16149250505095945050505050565b610a7f610c24565b73ffffffffffffffffffffffffffffffffffffffff16610a9d6105d5565b73ffffffffffffffffffffffffffffffffffffffff1614610afc57610ac0610c24565b6040517f118cdaa7000000000000000000000000000000000000000000000000000000008152600401610af391906111f8565b60405180910390fd5b565b60008060009054906101000a900473ffffffffffffffffffffffffffffffffffffffff169050816000806101000a81548173ffffffffffffffffffffffffffffffffffffffff021916908373ffffffffffffffffffffffffffffffffffffffff1602179055508173ffffffffffffffffffffffffffffffffffffffff168173ffffffffffffffffffffffffffffffffffffffff167f8be0079c531659141344cd1fd0a4f28419497f9722a3daafe3b4186f6b6457e060405160405180910390a35050565b60007f19457468657265756d205369676e6564204d6573736167653a0a33320000000060005281601c52603c6000209050919050565b600080600080610c088686610c2c565b925092509250610c188282610c88565b82935050505092915050565b600033905090565b60008060006041845103610c715760008060006020870151925060408701519150606087015160001a9050610c6388828585610dec565b955095509550505050610c81565b60006002855160001b9250925092505b9250925092565b60006003811115610c9c57610c9b61173e565b5b826003811115610caf57610cae61173e565b5b0315610de85760016003811115610cc957610cc861173e565b5b826003811115610cdc57610cdb61173e565b5b03610d13576040517ff645eedf00000000000000000000000000000000000000000000000000000000815260040160405180910390fd5b60026003811115610d2757610d2661173e565b5b826003811115610d3a57610d3961173e565b5b03610d7f578060001c6040517ffce698f7000000000000000000000000000000000000000000000000000000008152600401610d7691906111ce565b60405180910390fd5b600380811115610d9257610d9161173e565b5b826003811115610da557610da461173e565b5b03610de757806040517fd78bce0c000000000000000000000000000000000000000000000000000000008152600401610dde9190611786565b60405180910390fd5b5b5050565b60008060007f7fffffffffffffffffffffffffffffff5d576e7357a4501ddfe92f46681b20a08460001c1115610e2c576000600385925092509250610ed6565b600060018888888860405160008152602001604052604051610e5194939291906117bd565b6020604051602081039080840390855afa158015610e73573d6000803e3d6000fd5b505050602060405103519050600073ffffffffffffffffffffffffffffffffffffffff168173ffffffffffffffffffffffffffffffffffffffff1603610ec757600060016000801b93509350935050610ed6565b8060008060001b935093509350505b9450945094915050565b6000604051905090565b600080fd5b600080fd5b600073ffffffffffffffffffffffffffffffffffffffff82169050919050565b6000610f1f82610ef4565b9050919050565b610f2f81610f14565b8114610f3a57600080fd5b50565b600081359050610f4c81610f26565b92915050565b6000819050919050565b610f6581610f52565b8114610f7057600080fd5b50565b600081359050610f8281610f5c565b92915050565b600080fd5b600080fd5b6000601f19601f8301169050919050565b7f4e487b7100000000000000000000000000000000000000000000000000000000600052604160045260246000fd5b610fdb82610f92565b810181811067ffffffffffffffff82111715610ffa57610ff9610fa3565b5b80604052505050565b600061100d610ee0565b90506110198282610fd2565b919050565b600067ffffffffffffffff82111561103957611038610fa3565b5b61104282610f92565b9050602081019050919050565b82818337600083830152505050565b600061107161106c8461101e565b611003565b90508281526020810184848401111561108d5761108c610f8d565b5b61109884828561104f565b509392505050565b600082601f8301126110b5576110b4610f88565b5b81356110c584826020860161105e565b91505092915050565b600080600080600060a086880312156110ea576110e9610eea565b5b60006110f888828901610f3d565b955050602061110988828901610f3d565b945050604061111a88828901610f73565b935050606061112b88828901610f73565b925050608086013567ffffffffffffffff81111561114c5761114b610eef565b5b611158888289016110a0565b9150509295509295909350565b60006020828403121561117b5761117a610eea565b5b600061118984828501610f73565b91505092915050565b6000602082840312156111a8576111a7610eea565b5b60006111b684828501610f3d565b91505092915050565b6111c881610f52565b82525050565b60006020820190506111e360008301846111bf565b92915050565b6111f281610f14565b82525050565b600060208201905061120d60008301846111e9565b92915050565b600082825260208201905092915050565b7f496e76616c6964207369676e6174757265000000000000000000000000000000600082015250565b600061125a601183611213565b915061126582611224565b602082019050919050565b600060208201905081810360008301526112898161124d565b9050919050565b7f4e487b7100000000000000000000000000000000000000000000000000000000600052601160045260246000fd5b60006112ca82610f52565b91507fffffffffffffffffffffffffffffffffffffffffffffffffffffffffffffffff82036112fc576112fb611290565b5b600182019050919050565b7f496e76616c6964206e6f6e636500000000000000000000000000000000000000600082015250565b600061133d600d83611213565b915061134882611307565b602082019050919050565b6000602082019050818103600083015261136c81611330565b9050919050565b60008151905061138281610f5c565b92915050565b60006020828403121561139e5761139d610eea565b5b60006113ac84828501611373565b91505092915050565b7f496e73756666696369656e742062616c616e6365000000000000000000000000600082015250565b60006113eb601483611213565b91506113f6826113b5565b602082019050919050565b6000602082019050818103600083015261141a816113de565b9050919050565b600060608201905061143660008301866111e9565b61144360208301856111e9565b61145060408301846111bf565b949350505050565b60008115159050919050565b61146d81611458565b811461147857600080fd5b50565b60008151905061148a81611464565b92915050565b6000602082840312156114a6576114a5610eea565b5b60006114b48482850161147b565b91505092915050565b60006114c882610f52565b91506114d383610f52565b92508282039050818111156114eb576114ea611290565b5b92915050565b60006114fc82610f52565b915061150783610f52565b925082820261151581610f52565b9150828204841483151761152c5761152b611290565b5b5092915050565b7f496e73756666696369656e74206761732066756e647300000000000000000000600082015250565b6000611569601683611213565b915061157482611533565b602082019050919050565b600060208201905081810360008301526115988161155c565b9050919050565b60006040820190506115b460008301856111e9565b6115c160208301846111bf565b9392505050565b6000815190506115d781610f26565b92915050565b6000602082840312156115f3576115f2610eea565b5b6000611601848285016115c8565b91505092915050565b7f4e6f7420746f6b656e206f776e65720000000000000000000000000000000000600082015250565b6000611640600f83611213565b915061164b8261160a565b602082019050919050565b6000602082019050818103600083015261166f81611633565b9050919050565b60008160601b9050919050565b600061168e82611676565b9050919050565b60006116a082611683565b9050919050565b6116b86116b382610f14565b611695565b82525050565b6000819050919050565b6116d96116d482610f52565b6116be565b82525050565b60006116eb82886116a7565b6014820191506116fb82876116a7565b60148201915061170b82866116a7565b60148201915061171b82856116c8565b60208201915061172b82846116c8565b6020820191508190509695505050505050565b7f4e487b7100000000000000000000000000000000000000000000000000000000600052602160045260246000fd5b6000819050919050565b6117808161176d565b82525050565b600060208201905061179b6000830184611777565b92915050565b600060ff82169050919050565b6117b7816117a1565b82525050565b60006080820190506117d26000830187611777565b6117df60208301866117ae565b6117ec6040830185611777565b6117f96060830184611777565b9594505050505056fea2646970667358221220ee9dad9725f2c275a1bc3af5c7efd215c1b650c109f598b8509e647b633c1f5964736f6c63430008140033",
  "linkReferences": {},
  "deployedLinkReferences": {}
}